:020000040800F2
:10000000280400209D010008E1020008A702000862
:10001000A9020008E5010008B9040008000000007A
:100020000000000000000000000000008D03000838
:10003000E701000800000000E30200084504000892
:10004000B7010008B7010008B7010008B7010008B0
:10005000B7010008B7010008B7010008B7010008A0
:10006000B7010008B7010008B7010008B701000890
:10007000B7010008B7010008B7010008B701000880
:10008000B7010008B7010008B7010008B701000870
:10009000B7010008B7010008B7010008B701000860
:1000A000B7010008B7010008B7010008B701000850
:1000B000B7010008B7010008B7010008B701000840
:1000C000B7010008B7010008B7010008B701000830
:1000D000B7010008B7010008B7010008B701000820
:1000E000B7010008B7010008B7010008B701000810
:1000F000B7010008B7010008B7010008B701000800
:10010000B7010008B7010008B7010008B7010008EF
:10011000B7010008B7010008B7010008B7010008DF
:10012000B7010008B7010008B7010008B7010008CF
:10013000B7010008B7010008B7010008B7010008BF
:10014000B7010008B7010008B7010008B7010008AF
:10015000B7010008B7010008B7010008B70100089F
:10016000B7010008B7010008B7010008B70100088F
:10017000B7010008B7010008B7010008B70100087F
:10018000B7010008B7010008DFF80CD000F018F83C
:1001900000480047D904000828040020064880478A
:1001A00006480047FEE7FEE7FEE7FEE7FEE7FEE75C
:1001B000FEE7FEE7FEE7FEE74904000889010008C4
:1001C000064C074D06E0E06840F0010394E80700A4
:1001D00098471034AC42F6D3FFF7DAFF3C0500082D
:1001E0005C050008FEE7704701B50348009901600F
:1001F00001680029FCD108BD00000020F0B50023F3
:10020000012403270D6804FA03F21540954242D1F8
:10021000D0F800C05E0007FA06F52CEA050CC0F81D
:1002200000C091F804C0D0F800E00CFA06FC4CEADB
:100230000E0CC0F800C091F804C0BCF1010F02D050
:10024000BCF1020F1FD1D0F808C02CEA050CC0F891
:1002500008C091F805C0D0F808E00CFA06FC4CEA9A
:100260000E0CC0F808C0D0F804C02CEA020CC0F88C
:1002700004C0426891F806C00CFA03FC1FFA8CFC1B
:1002800042EA0C024260C268AA43C260CA79C568E9
:10029000B2402A43C2605B1C102BB3D3F0BD418334
:1002A000704701837047FEE7FEE700001CB501219F
:1002B000084600F017F84020009003208DF8050054
:1002C00001208DF8040000208DF806008DF807004D
:1002D00069460248FFF792FF1CBD00000000024083
:1002E00070477047044A0029116801D0014300E0BB
:1002F00081431160704700003038024070B5204AD9
:100300001168204C11F00C0104D06610042903D0B0
:10031000082903D004601BE0066019E01849091F92
:100320000B68C3F380550B6803F03F0315B1B6FBB0
:10033000F3F301E0B4FBF3F30C680968C4F3881429
:100340006343C1F30141491C4900B3FBF1F1016072
:1003500011680F2303EA11110B4B5C5C0168E1404B
:1003600041601468072505EA94241C5D21FA04F411
:100370008460126805EA52329A5CD140C16070BD57
:10038000083802400024F4000400002070470000F8
:100390000CB500202749019000900A6842F4803291
:1003A0000A604FF4A0430A6802F400320092019AF6
:1003B000521C0192009A12B9019A9A42F3D10A682A
:1003C000920334D5012000901A484030026842F070
:1003D000805202601848026842F4404202601548A8
:1003E000083002680260026842F40042026002685B
:1003F00042F4A0520260031F104A1A600A6842F0D9
:1004000080720A600A689201FCD50D4A40F20571BB
:100410001160016821F003010160016841F00201EF
:1004200001600168C1F381010229FAD10CBD00907D
:100430000CBD000000380240007000401954400715
:10044000003C024000F02EB8124810B5016841F49B
:10045000700101601048016841F0010101600E4A1D
:1004600000210832116002680C4B1A400260031D23
:100470000B4A1A60026822F48022026006480C309F
:100480000160FFF785FF03494FF000608039086085
:1004900010BD000088ED00E000380240FFFFF6FECE
:1004A0001030002403480168002902D00168491E69
:1004B0000160704700000020FEE702E008C8121F3C
:1004C00008C1002AFAD170477047002001E001C13D
:1004D000121F002AFBD170471548FFF70FFF144881
:1004E0004FF47A714068B0FBF1F0401EB0F1807FAC
:1004F0000AD24FF0E02148610E4AF02082F8140D34
:100500000020886107200861FFF7D0FE0A4C4FF4F5
:10051000967540212046FFF7C4FE2846FFF764FE8B
:1005200040212046FFF7BBFE2846FFF75DFEF0E7BF
:10053000140000200FE000E0000002405C0500080D
:100540000000002014000000BA0400087005000834
:100550001400002014040000CA0400080000000079
:100560000000000001020304010203040607080959
:040000050800018965
:00000001FF
