:020000040800F2
:10000000400400209D010008A903000839030008EE
:100010003B030008E5010008C907000800000000D4
:10002000000000000000000000000000250600089D
:10003000E701000800000000C1030008DD06000819
:10004000B7010008B7010008B7010008B7010008B0
:10005000B7010008B7010008B7010008B7010008A0
:10006000B7010008B7010008B7010008B701000890
:10007000B7010008B7010008B7010008B701000880
:10008000B7010008B7010008B7010008B701000870
:10009000B7010008B7010008B7010008B701000860
:1000A000B7010008B7010008B7010008B701000850
:1000B000B7010008B7010008B7010008B701000840
:1000C000B7010008B7010008B7010008B701000830
:1000D000B7010008B7010008B7010008B701000820
:1000E000B7010008B7010008B7010008B701000810
:1000F000B7010008B7010008B7010008B701000800
:10010000B7010008B7010008B7010008B7010008EF
:10011000B7010008B7010008B7010008B7010008DF
:10012000B7010008B7010008B7010008B7010008CF
:10013000B7010008B7010008B7010008B7010008BF
:10014000B7010008B7010008B7010008B7010008AF
:10015000B7010008B7010008B7010008B70100089F
:10016000B7010008B7010008B7010008B70100088F
:10017000B7010008B7010008B7010008B70100087F
:10018000B7010008B7010008DFF80CD000F018F83C
:1001900000480047E907000840040020064880475F
:1001A00006480047FEE7FEE7FEE7FEE7FEE7FEE75C
:1001B000FEE7FEE7FEE7FEE75907000889010008B1
:1001C000064C074D06E0E06840F0010394E80700A4
:1001D00098471034AC42F6D3FFF7DAFF6408000802
:1001E00084080008FEE7704701B5034800994160A4
:1001F00041680029FCD108BD1400002005490028F1
:10020000086802D040F4807001E020F4807008603B
:1002100070470000003C0240014908707047000030
:10022000003C0240F0B50023012403270D6804FAC6
:1002300003F21540954242D1D0F800C05E0007FAA3
:1002400006F52CEA050CC0F800C091F804C0D0F8FF
:1002500000E00CFA06FC4CEA0E0CC0F800C091F865
:1002600004C0BCF1010F02D0BCF1020F1FD1D0F8C5
:1002700008C02CEA050CC0F808C091F805C0D0F8F9
:1002800008E00CFA06FC4CEA0E0CC0F808C0D0F8E6
:1002900004C02CEA020CC0F804C0426891F806C001
:1002A0000CFA03FC1FFA8CFC42EA0C024260C268A2
:1002B000AA43C260CA79C568B2402A43C2605B1CC7
:1002C000102BB3D3F0BD418370470183704708B54D
:1002D00000F090F8012000F02BF900F069F94FF4DC
:1002E000404000F063F8002000F018F94FF4A050EF
:1002F00000F026F94FF4805000F02CF9072004217B
:1003000000900223A822080500F034F9012000F033
:100310002BF9392000F0E0F80028FAD00120FFF78F
:100320006DFF0520FFF778FF022000F037F900F09D
:10033000EDF80828FBD108BDFEE7FEE71CB501215A
:10034000084600F03FF84020009003208DF805009B
:1003500001208DF8040000208DF806008DF80700BC
:1003600069460248FFF75EFF1CBD00000000024026
:1003700000B501218BB0880500F030F80020E021A5
:100380000090CDE90101039010210490CDE9050111
:10039000079001200A906946024800F01FF90BB04F
:1003A00000BD00000458014070470000034A116876
:1003B00021F440410143116070470000007000408B
:1003C00070470000044A0029116801D0014300E091
:1003D000814311607047000030380240044A002910
:1003E000116801D0014300E08143116070470000B3
:1003F000343802401048016841F0010101600E4AA2
:1004000000210832116002680C4B1A400260031D83
:100410000B4A1A60084B0B4A84331A60084A103A98
:100420001B1D1A60026822F48022026002480C3010
:100430000160181D0160704700380240FFFFF6EAB6
:10044000103000240030002070B5204A1168204C84
:1004500011F00C0104D06610042903D0082903D040
:1004600004601BE0066019E01849091F0B68C3F31C
:1004700080550B6803F03F0315B1B6FBF3F301E0C1
:10048000B4FBF3F30C680968C4F388146343C1F345
:100490000141491C4900B3FBF1F1016011680F23D0
:1004A00003EA11110B4B5C5C0168E1404160146888
:1004B000072505EA94241C5D21FA04F4846012687F
:1004C00005EA52329A5CD140C16070BD08380240E2
:1004D0000024F4001C0000200246002051090129DC
:1004E0000BD002290CD00849096802F01F02012331
:1004F00093400B4200D00120704703497439F3E761
:100500000149091FF0E70000743802400248006802
:1005100000F00C007047000008380240034A1168E0
:1005200021F0F001014311607047000008380240DB
:10053000024900220A700870704700000238024029
:10054000034A116821F4E051014311607047000033
:100550000838024003490A6822F4604242EAC000B7
:10056000086070470838024001490866704700007B
:100570000000474241EA82115A0810B5054B029C1F
:1005800003EB02421143014341EA0460024908605F
:1005900010BD00000000FFFF04380240034A11684C
:1005A00021F0030101431160704700000838024048
:1005B00018B500204FF4A04400903120FFF78CFFC5
:1005C0000099491C0091A14201D00028F5D03120AA
:1005D000FFF782FF002800D0012018BD30B5026867
:1005E0000F4B1A40D1E900342343D1E902452C4393
:1005F00023430C6923434C692343CC6923430C6A8E
:1006000023438C6923438C8C43EA045313430360D4
:100610004268896A22F003021143416030BD000044
:1006200010C007FF704700000CB50020274901905B
:1006300000900A6842F480320A604FF4A0430A68CE
:1006400002F400320092019A521C0192009A12B9EF
:10065000019A9A42F3D10A68920334D5012000909E
:100660001A484030026842F080520260184802681E
:1006700042F4404202601548083002680260026895
:1006800042F400420260026842F4A0520260031F7A
:10069000104A1A600A6842F080720A600A68920181
:1006A000FCD50D4A40F205711160016821F003018B
:1006B0000160016841F0020101600168C1F381013C
:1006C0000229FAD10CBD00900CBD00000038024098
:1006D0000070004019544007003C024000F06AB826
:1006E00070B51A4C20681A4A10F00C01194804D051
:1006F0005510042903D0082903D002601BE00560CF
:1007000019E01249091F0B68C3F380560B6803F008
:100710003F0316B1B5FBF3F201E0B2FBF3F20B6855
:100720000968C3F388135A43C1F30141491C4900C6
:10073000B2FBF1F101602168064AC1F30311121DF9
:10074000515C0268CA40026070BD00000838024077
:100750000024F40000000020124810B5016841F4A4
:10076000700101601048016841F0010101600E4A0A
:1007700000210832116002680C4B1A400260031D10
:100780000B4A1A60026822F48022026006480C308C
:100790000160FFF749FF03494FF0006080390860AE
:1007A00010BD000088ED00E000380240FFFFF6FEBB
:1007B0001030002403484168002902D04168491ED6
:1007C0004160704714000020FEE702E008C8121FD5
:1007D00008C1002AFAD170477047002001E001C12A
:1007E000121F002AFBD17047FFF771FDFFF778FF5A
:1007F00018484FF47A714068B0FBF1F0401EB0F138
:10080000807F0AD24FF0E0214861134AF02082F83D
:10081000140D00208861072008610E48FFF714FEC0
:10082000FFF774FE0D490870FFF788FDFFF7A0FD84
:100830000B4C4FF4967540212046FFF746FD2846A5
:10084000FFF7D2FC40212046FFF73DFD2846FFF789
:10085000CBFCF0E72C0000200FE000E014000020AB
:100860000000024084080008000000202C00000066
:10087000CA070008B00800082C000020140400007B
:10088000DA070008007A030A0000000000000000F8
:100890000102030406070809000000000000000030
:1008A0000000000001020304010203040607080916
:040000050800018965
:00000001FF
