:020000040800F2
:10000000280400209D0100088F0200088B020008D0
:100010008D020008E50100089104000800000000BE
:100020000000000000000000000000006503000860
:10003000E701000800000000910200081D0400080C
:10004000B7010008B7010008B7010008B7010008B0
:10005000B7010008B7010008B7010008B7010008A0
:10006000B7010008B7010008B7010008B701000890
:10007000B7010008B7010008B7010008B701000880
:10008000B7010008B7010008B7010008B701000870
:10009000B7010008B7010008B7010008B701000860
:1000A000B7010008B7010008B7010008B701000850
:1000B000B7010008B7010008B7010008B701000840
:1000C000B7010008B7010008B7010008B701000830
:1000D000B7010008B7010008B7010008B701000820
:1000E000B7010008B7010008B7010008B701000810
:1000F000B7010008B7010008B7010008B701000800
:10010000B7010008B7010008B7010008B7010008EF
:10011000B7010008B7010008B7010008B7010008DF
:10012000B7010008B7010008B7010008B7010008CF
:10013000B7010008B7010008B7010008B7010008BF
:10014000B7010008B7010008B7010008B7010008AF
:10015000B7010008B7010008B7010008B70100089F
:10016000B7010008B7010008B7010008B70100088F
:10017000B7010008B7010008B7010008B70100087F
:10018000B7010008B7010008DFF80CD000F018F83C
:1001900000480047B10400082804002006488047B2
:1001A00006480047FEE7FEE7FEE7FEE7FEE7FEE75C
:1001B000FEE7FEE7FEE7FEE72104000889010008EC
:1001C000064C074D06E0E06840F0010394E80700A4
:1001D00098471034AC42F6D3FFF7DAFF6405000805
:1001E00084050008FEE77047F0B5002301240327CB
:1001F0000D6804FA03F21540954242D1D0F800C0D0
:100200005E0007FA06F52CEA050CC0F800C091F86C
:1002100004C0D0F800E00CFA06FC4CEA0E0CC0F862
:1002200000C091F804C0BCF1010F02D0BCF1020F74
:100230001FD1D0F808C02CEA050CC0F808C091F80E
:1002400005C0D0F808E00CFA06FC4CEA0E0CC0F829
:1002500008C0D0F804C02CEA020CC0F804C0426800
:1002600091F806C00CFA03FC1FFA8CFC42EA0C025F
:100270004260C268AA43C260CA79C568B2402A43D4
:10028000C2605B1C102BB3D3F0BDFEE7FEE77047E6
:1002900070470000044A0029116801D0014300E0C2
:1002A00081431160704700003038024070B5204A29
:1002B0001168204C11F00C0104D06610042903D001
:1002C000082903D004601BE0066019E01849091FE3
:1002D0000B68C3F380550B6803F03F0315B1B6FB01
:1002E000F3F301E0B4FBF3F30C680968C4F388147A
:1002F0006343C1F30141491C4900B3FBF1F10160C3
:1003000011680F2303EA11110B4B5C5C0168E1409B
:1003100041601468072505EA94241C5D21FA04F461
:100320008460126805EA52329A5CD140C16070BDA7
:10033000083802400024F40004000020034A136837
:10034000084323F0EC6318431060704708380240FC
:10035000034A1368084323F078431843106070473A
:1003600008380240704700000CB500202749019072
:1003700000900A6842F480320A604FF4A0430A6891
:1003800002F400320092019A521C0192009A12B9B2
:10039000019A9A42F3D10A68920334D50120009061
:1003A0001A484030026842F08052026018480268E1
:1003B00042F4404202601548083002680260026858
:1003C00042F400420260026842F4A0520260031F3D
:1003D000104A1A600A6842F080720A600A68920144
:1003E000FCD50D4A40F205711160016821F003014E
:1003F0000160016841F0020101600168C1F38101FF
:100400000229FAD10CBD00900CBD0000003802405A
:100410000070004019544007003C024000F02EB824
:10042000124810B5016841F470010160104801687C
:1004300041F0010101600E4A00210832116002689A
:100440000C4B1A400260031D0B4A1A60026822F42A
:100450008022026006480C300160FFF785FF0349E7
:100460004FF000608039086010BD000088ED00E0AA
:1004700000380240FFFFF6FE1030002403480168F8
:10048000002902D00168491E016070470000002069
:10049000FEE702E008C8121F08C1002AFAD170471F
:1004A0007047002001E001C1121F002AFBD17047F4
:1004B0000EB52748FFF7FAFE25486421002440685E
:1004C000B0FBF1F0401EB0F1807F09D24FF0E02187
:1004D0004861204AF02082F8140D8C6107200861E1
:1004E0001D4805210291016001680029FCD101210C
:1004F0000846FFF7CFFE03258DF8055002264FF47E
:1005000080708DF8046000908DF8064001278DF80A
:10051000077069461148FFF767FE00217005FFF775
:100520000DFF01210420FFF7B5FE8DF805503002C4
:100530008DF8046000908DF806408DF807706946CC
:100540000748FFF751FE29070020FFF701FFFEE7EC
:10055000140000200FE000E0000000200000024036
:10056000000802408405000800000020140000007C
:1005700092040008980500081400002014040000EC
:10058000A2040008000000000000000001020304B3
:0805900001020304060708093B
:040000050800018965
:00000001FF
